LM02002950180000001400LUM2SAU09022416312 090224                                   S.BATCH:090224163151                                1                                                                                        000LMP3SAU                                                                   #123571327#SBSAU            #DNB002786#LMP300  #00LMP3SAU #090224043200#S
LM021029501800000014AAC-OPISTO OY                                                         20893800026423 89100000000000000044778                                                    09022400000000200000000000000000000PAYM:84             VT:10000                                                         #123571327#SBSAU            #DNB002786#LMP300  #00LMP3SAU #090224043200#S
LM02902950180000001400LUM2SAU09022400000100000000020000000000000000000000000000                                                                                                                                                                                                                             #123571327#SBSAU            #DNB002786#LMP300  #00LMP3SAU #090224043200#S
