LM02001328101234567566666666608082914152 080829                                   S.BATCH:080829141533                                1                                                                                        05555555555                                                                  
LM021013281012345675TALENTUM OYJ                                                          24001800014060 89100000000036288188006                                                    00101800000007920000000000000000000PAYM:35             VT:10000                                                         
LM021013281012345675KAUPPALEHTI                                                           15713000023334 89100002142401117184303                                                    00110100000011550000000000000000000PAYM:36             VT:10000                                                         
LM021013281012345675RUOKANET OY                                                           10173000206345 89100000000000081021707                                                    00111700000002187400000000000000000PAYM:37             VT:10000                                                         
LM021013281012345675HELSINKI MEDIA                                                        15713000018821 89100000962101026230066                                                    00112400000007137000000000000000000PAYM:38             VT:10000                                                         
LM021013281012345675VENDOR OY AB                                                          66010001037589 89100000000000000501635                                                    00112700000002806000000000000000000PAYM:39             VT:10000                                                         
LM021013281012345675MATKAHUOLTO OY AB                                                     21851800062201 89100000018007943158884                                                    00112900000008780000000000000000000PAYM:40             VT:10000                                                         
LM021013281012345675OULUN PUHELIN OY                                                      20501800060884 89100000000000004940713                                                    00113000000008201000000000000000000PAYM:41             VT:10000                                                         
LM021013281012345675OULUN HITEC PALVELUT                                                  15853000014451 89100000000000012036224                                                    00120500000008833000000000000000000PAYM:42             VT:10000                                                         
LM021013281012345675LŽHIVARTIOINTI OY                                                     21211800010520 89100000032194000010194                                                    00120500000003600000000000000000000PAYM:43             VT:10000                                                         
LM021013281012345675TAMPEREEN KONTTORIKONE OY                                             57322620017061 89100000000017660950185                                                    00120800000024917000000000000000000PAYM:44             VT:10000                                                         
LM021013281012345675FAST HENKIL™ST™PALVELUT OY                                            57300820058580 89100000003011000059102                                                    00121200000007229000000000000000000PAYM:45             VT:10000                                                         
LM021013281012345675AAC-OPISTO OY                                                         20893800026423 89100000000001061097307                                                    00121400000004360000000000000000000PAYM:46             VT:10000                                                         
LM021013281012345675WSOY YRITYSJULKAISUT                                                  21531800033796 89100052001107583490061                                                    00122100000003390000000000000000000PAYM:47             VT:10000                                                         
LM021013281012345675TIETOTEKNIIKAN KEHITTŽMISKESKU                                        80001901197310 89100000100010200065890                                                    00122200000011590000000000000000000PAYM:48             VT:10000                                                         
LM021013281012345675BASWARE OYJ                   LINNOITUSTIE2       02600 ESPOO         80001300079044 89100000000000000000123                                                    07031600000009680000000000000000000PAYM:54             VT:10000                                                         
LM02901328101234567566666666608082900001500000012218040000000000000000000000000                                                                                                                                                                                                                             
LM02001328101234567566666666608082914152 080829                                   S.BATCH:080829141534                                1                                                                                        05555555555                                                                  
LM021013281012345675SUOMEN MESSUT OSUUSKUNTA                                              80001600105507 89100000000129600444620                                                    00102000000059506000000000000000000PAYM:100            VT:10200                                                         
LM021013281012345675TAMPEREEN PUHELIN OYJ                                                 15843000017331 89100000000000079482002                                                    00121900000053680000000000000000000PAYM:107            VT:10200                                                         
LM02901328101234567566666666608082900000200000011318600000000000000000000000000                                                                                                                                                                                                                             
LM02002950180000001422222222208082914152 080829                                   S.BATCH:080829141535                                1                                                                                        0                                                                            
LM021029501800000014PELTOLAN KONEPAJA OY                                                  29501800008512 89100000000000000000123                                                    02090200000015002000000000000000000PAYM:1              VT:10000                                                         
LM021029501800000014HŽMEEN LŽŽNINVEROVIRASTO                                              80001470250136 89700000142351234154342               61=55000/74=45000/67=250000/         02090200000083000000000000000000000PAYM:3              VT:10000                                                         
LM02902950180000001422222222208082900000200000009800200000000000000000000000000                                                                                                                                                                                                                             
LM02002950180000001422222222208082914152 080829                                   S.BATCH:080829141536                                1                                                                                        0                                                                            
LM021029501800000014AMICA RAVINTOLAT OY                                                   20011800267828 89100000000000000000123                                                    03082500000020690000000000000000000PAYM:201            VT:10200                                                         
LM02902950180000001422222222208082900000100000002069000000000000000000000000000                                                                                                                                                                                                                             
